:020000040000fa
:080000000001040000000000f3
:020000040000fa
:04000800560200009c
:020000040000fa
:04000c005602000098
:020000040000fa
:040010005602000094
:020000040000fa
:040014005602000090
:020000040000fa
:04001800560200008c
:020000040000fa
:04001c005602000088
:020000040000fa
:040020005602000084
:020000040000fa
:040024005602000080
:020000040000fa
:040028003a02000098
:020000040000fa
:04002c005602000078
:020000040000fa
:040030005602000074
:020000040000fa
:040034005602000070
:020000040000fa
:04003800560200006c
:020000040000fa
:04003c005602000068
:020000040000fa
:040040005602000064
:020000040000fa
:040044005602000060
:020000040000fa
:04004800560200005c
:020000040000fa
:04004c005602000058
:020000040000fa
:040050005602000054
:020000040000fa
:0400540004020000a2
:020000040000fa
:04005800560200004c
:020000040000fa
:04005c005602000048
:020000040000fa
:040060005602000044
:020000040000fa
:040064005602000040
:020000040000fa
:04006800560200003c
:020000040000fa
:04006c005602000038
:020000040000fa
:040070005602000034
:020000040000fa
:040074005602000030
:020000040000fa
:04007800560200002c
:020000040000fa
:04007c005602000028
:020000040000fa
:040080005602000024
:020000040000fa
:040084005602000020
:020000040000fa
:04008800560200001c
:020000040000fa
:04008c005602000018
:020000040000fa
:040090005602000014
:020000040000fa
:040094005602000010
:020000040000fa
:04009800560200000c
:020000040000fa
:04009c005602000008
:020000040000fa
:0400a0005602000004
:020000040000fa
:0400a4005602000000
:020000040000fa
:0400a80056020000fc
:020000040000fa
:0400ac0056020000f8
:020000040000fa
:0400b00056020000f4
:020000040000fa
:0400b40056020000f0
:020000040000fa
:0400b80056020000ec
:020000040000fa
:0400bc0056020000e8
:020000040000fa
:0400c00056020000e4
:020000040000fa
:0400c40056020000e0
:020000040000fa
:0400c80056020000dc
:020000040000fa
:0400cc0056020000d8
:020000040000fa
:0400d00056020000d4
:020000040000fa
:0400d40056020000d0
:020000040000fa
:0400d80056020000cc
:020000040000fa
:0400dc0056020000c8
:020000040000fa
:0400e00056020000c4
:020000040000fa
:0400e40056020000c0
:020000040000fa
:0400e80056020000bc
:020000040000fa
:0400ec0056020000b8
:020000040000fa
:0400f00056020000b4
:020000040000fa
:0400f40056020000b0
:020000040000fa
:0400f80056020000ac
:020000040000fa
:0400fc0056020000a8
:020000040000fa
:0401000056020000a3
:020000040000fa
:04010400560200009f
:020000040000fa
:04010800560200009b
:020000040000fa
:04010c005602000097
:020000040000fa
:040110005602000093
:020000040000fa
:04011400560200008f
:020000040000fa
:04011800560200008b
:020000040000fa
:04011c005602000087
:020000040000fa
:040120005602000083
:020000040000fa
:04012400560200007f
:020000040000fa
:04012800560200007b
:020000040000fa
:04012c005602000077
:020000040000fa
:040130005602000073
:020000040000fa
:04013400560200006f
:020000040000fa
:04013800560200006b
:020000040000fa
:04013c005602000067
:020000040000fa
:040140005602000063
:020000040000fa
:04014400560200005f
:020000040000fa
:04014800560200005b
:020000040000fa
:04014c005602000057
:020000040000fa
:040150005602000053
:020000040000fa
:04015400560200004f
:020000040000fa
:04015800560200004b
:020000040000fa
:04015c005602000047
:020000040000fa
:040160005602000043
:020000040000fa
:04016400560200003f
:020000040000fa
:04016800560200003b
:020000040000fa
:04016c005602000037
:020000040000fa
:040170005602000033
:020000040000fa
:04017400560200002f
:020000040000fa
:04017800560200002b
:020000040000fa
:04017c005602000027
:020000040000fa
:040180005602000023
:020000040000fa
:04018400560200001f
:020000040000fa
:04018800560200001b
:020000040000fa
:04018c005602000017
:020000040000fa
:040190005602000013
:020000040000fa
:04019400560200000f
:020000040000fa
:04019800560200000b
:020000040000fa
:04019c005602000007
:020000040000fa
:0401a0005602000003
:020000040000fa
:0401a40056020000ff
:020000040000fa
:0401a80056020000fb
:020000040000fa
:0401ac0056020000f7
:020000040000fa
:0401b00056020000f3
:020000040000fa
:0401b40056020000ef
:020000040000fa
:0401b80056020000eb
:020000040000fa
:0401bc0056020000e7
:020000040000fa
:0401c00056020000e3
:020000040000fa
:0401c40056020000df
:020000040000fa
:0401c80056020000db
:020000040000fa
:0401cc0056020000d7
:020000040000fa
:0401d00056020000d3
:020000040000fa
:0401d40056020000cf
:020000040000fa
:0401d80056020000cb
:020000040000fa
:0401dc0056020000c7
:020000040000fa
:0401e00056020000c3
:020000040000fa
:0401e40056020000bf
:020000040000fa
:0401e80056020000bb
:020000040000fa
:0401ec0056020000b7
:020000040000fa
:0401f00056020000b3
:020000040000fa
:0401f40056020000af
:020000040000fa
:0401f80056020000ab
:020000040000fa
:0401fc0056020000a7
:020000040000fa
:10020000af8020000e7f24000e0188000000000057
:10021000000020000000e000020032000001200089
:100220002002880014000700a20007000000e00080
:1002300003003a00407e2000010020000200370049
:100240000000200001002000810f7000010032003a
:1002500014000700000020000000e000020032004f
:100260000000020000000000ce07020000000000b5
:100270000040da000000fe004440a90020002000f9
:100280000000e00003003200100020009001880010
:100290004440a800000006008a1f78008b1f7800e9
:1002a00000000600a1028800800478000000eb0036
:1002b0001f003700e284440054a0b4009905ba003e
:1002c000e284440054a0b4009906ba00e2844400d9
:1002d00054a0b4000006eb00476fde00fd07b2003b
:1002e000ae018800636ce10003003a00eaff0700fa
:1002f0000000eb000e003700606ce10008003a00df
:10030000004deb000a05e800020039003420ec0043
:100310000af0a0008b05e900f9ff3e000400370059
:100320006168e100010032000086eb000b0007006d
:1003300019c7ba001905ba000e04e00003003a001c
:100340000a00e000dbff3a0000000600fe07b200f2
:10035000ae0288008a047800f5ff37000cd0a300b5
:10036000e20f4d001c00390089027800354dba00bb
:100370000a05e800020039003420ec000af0a00071
:100380008b05e9000f003200254dba000a05e80090
:10039000020039003420ec000af0a0008b05e900cf
:1003a000080032000c00e0000600320015cdba0053
:1003b0000a05e800020039003420ec000af0a00031
:1003c0008b05e9008984e80054a0b4000b00e0002c
:1003d000e2ff3a00000006009902ba00055d7800cd
:1003e0008b05e900f7ff3200c82ade00055d7800c2
:1003f0008b05e900f3ff32000c00e000f1ff320052
:1004000019ddba00eeff37003600f800809fbe000d
:10041000829fbe00849fbe00869fbe000200fa003d
:10042000d01c8000610060000000e0000900320084
:10043000f01c8000004f78001e4078000004e000af
:10044000020035001e407800790207008960a9008b
:10045000010037008960a8000080fa004f03be0049
:100460004f02be004f01be004f00be003600f90033
:10047000004006003200f8003400f800881f7800c1
:1004800018002000a80188001800200098018800aa
:100490004f0478000000fa008800a9000080fa00ec
:1004a0003400f9003200f900004006000040da0094
:1004b0000000fe0000000500839f68000100e000ce
:1004c00002003d0060001000e08018000300e00022
:1004d00002003d0060011100e081190014000700d6
:1004e0004f00e00002003b0060001000e0801800b8
:1004f00000000600811f78000100e00002003d00be
:1005000060001000e08018000300e00002003d00e1
:1005100060011100e0811900150007004f00e000a4
:1005200002003b0060001000e080180000000600a0
:100530006022b800060220000000d0008180d200b6
:100540000482d2008582d2000000a0000202520084
:1005500083825a00030031000202420083824a0073
:100560000000a1000603e900f3ff3a0000000600c6
:0c057000efff07000400be0000000600c2
:020000040000fa
:10057c000600fa00200798000000eb00000f78003e
:10058c000b0037000000eb00100798000300370049
:10059c001e0090000000e800100798009e009000dc
:1005ac0070072000808f5000f9ff36001e0fe80006
:1005bc002e0090009e0f5000f2ff3e000080fa00cb
:1005cc00000006000400fa00008fbe00f07022004c
:1005dc00010020001e01be00800f5100818f5900c8
:1005ec00370034001e00be00027122000300200000
:1005fc00aeff0700000078000003b000e01c88008c
:10060c00a0002000daff07001e00be00823e200082
:10061c0003002000a5ff0700a2002000030020001b
:10062c00b1ff0700000078000003b000e01c880058
:10063c00a0002000ceff07001e00be0042062000d6
:10064c000300200099ff0700a200200003002000f7
:10065c00a5ff0700000078000003b000e01c880034
:10066c00a0002000c2ff07001e00be00a200200058
:10067c00030020008dff0700a200200003002000d3
:10068c0099ff0700000078000003b000e01c880010
:10069c00a0002000b6ff07001e00be00a200200034
:1006ac000300200090ff0700000078000003b0005a
:1006bc00e01c8800a0002000adff070060003700a0
:1006cc00703e2000010020001e01be00800f510072
:1006dc00818f5900230034001e00be00823e200092
:1006ec000300200071ff0700000078000003b00039
:1006fc00e01c88001e00be00420620000300200003
:10070c006aff0700a20020000300200076ff07000c
:10071c00000078000003b000e01c88001e00be0042
:10072c00a20020000300200060ff0700a2002000b0
:10073c00030020006cff0700000078000003b000ed
:10074c00e01c88001e00be00a20020000300200058
:10075c0065ff0700000078000003b000e01c880073
:10076c003700370030062000010020001e01be00bb
:10077c00800f5100818f5900190034001e00be00fb
:10078c00420620000300200048ff0700000078000c
:10079c000003b000e01c88001e00be00a200200078
:1007ac000300200041ff0700a200200003002000ee
:1007bc004dff0700000078000003b000e01c88002b
:1007cc001e00be00a20020000300200046ff070010
:1007dc00000078000003b000e01c8800180037000f
:1007ec001e01be009000200001002000800f51006f
:1007fc00818f59000f0034001e00be00a2002000a3
:10080c000300200029ff0700000078000003b0005f
:10081c00e01c88001e00be00a20020000300200087
:10082c0031ff0700000078000003b000e01c8800d6
:10083c00030037001e0078000003b000e01c8800a5
:10084c000080fa00000006000000fa000000000022
:10085c00d02480007f0060000000e000fcff3a0024
:10086c00f124800010002400008060000000e000f3
:10087c00f7ff3a000080fa00000006000000fa00c2
:10088c00f124800000002800008060000000e000df
:10089c0004003200e0042000e01c88000000eb00a3
:1008ac000400370010042000e01c88009fe4a8001e
:1008bc00100020000080fa00000006000000fa0082
:1008cc009aa4a8009a84a80000000000d0248000fc
:1008dc00700060000000e000fcff3a000080fa00ad
:1008ec00000006000000fa009aa4a9009a84a8004f
:1008fc0000000000d0248000700060000000e000c8
:10090c00fcff3a000080fa00000006000000fa002c
:10091c00cdff07009a04a80000000000d02480003e
:10092c00610060000000e000fcff3a000080fa006b
:10093c00000006000200fa00004f7800c2ff07001a
:10094c001e80fb00b024880000000000f124800011
:10095c0000002400008060000000e000fbff3a0073
:10096c000080fa00000006000000fa00b6ff070045
:10097c009a64a80000000000d02480006800600089
:10098c000000e000fcff3a00f024800062006000f0
:10099c000000e000f8ff3200a02480000080fa0084
:1009ac00000006000000fa009a24a80000000000d5
:1009bc00d0248000620060000000e000fcff3a00e0
:1009cc000080fa00000006000000fa009a44a8001b
:1009dc0000000000d0248000640060000000e000f3
:1009ec00fcff3a000080fa00000006000800fa0044
:1009fc0020079800614798002e0090004800de0008
:100a0c00000f7800ae009000f00f20000080600016
:100a1c0010079800bdff070000cab300c5ff070010
:100a2c0096ff07001e00780000407800c1ff070009
:100a3c0092ff07001e00900000407800bdff0700e9
:100a4c008eff07006e409000baff07008bff070077
:100a5c00ddff070000102000c5fe070010c0b3002a
:100a6c000080fa00000006000800fa003007980029
:100a7c003e0090004800de00000f7800be009000a1
:100a8c00f00f200000806000100798009fff070007
:100a9c0000cab300a7ff070078ff07001e0078000c
:100aac0000407800a3ff070074ff07001e009000b1
:100abc00004078009fff070070ff0700b9ff070098
:100acc0010cab3009bff07006cff0700a6ff0700ce
:100adc004047980083ff0700bbff07000010200071
:100aec00a3fe07004e4090000080fa0000000600b4
:100afc000000fa0007000700220007002e00070084
:100b0c0048000700530007005d0007000080fa0052
:100b1c00000006000000fa00000023001008880006
:100b2c000621ef006821ef006a21ef006c21ef0035
:100b3c000821ef0000702000500888000c21ef0005
:100b4c000e21ef000001eb0080072000a10920001e
:100b5c001310200080497800814978008249780080
:100b6c000001eb0060042000710520000310200040
:100b7c008049780081497800824978000080fa0029
:100b8c00000006000000fa007a26ef00f0fe2100bb
:100b9c00b03388007e26ef007b06a8007b26a800d9
:100bac007d06a8007d26a8007706a9007726a90057
:100bbc000080fa00000006000000fa009823ef0005
:100bcc009a23ef00a13d800000fc2f000080600004
:100bdc003000b300a03d8800c13e800000f82f001b
:100bec00008060003000b300c03e88008960a9001e
:100bfc0061058000f0ff2800808060000000230069
:100c0c0001007000600588009960a8009001200028
:100c1c00001d880099e3a8009b43a8000080fa00ff
:100c2c00000006000000fa008800a90081e0a9007d
:100c3c004105800080ff2f00008060000020a00094
:100c4c00400588008200a9009800a8000080fa00e6
:100c5c00000006000000fa0000002100d0248800eb
:100c6c009e24ef009c64a90030002000c024880062
:100c7c008a20a9009be4a8000080fa00000006006e
:100c8c000000fa007f86a8007e46a800313a80005a
:100c9c00f0f02f0000806000303a88004647a90031
:100cac004827ef004807a800513a8000f00f2e00ab
:100cbc0000806000503a88004947a900613a8000e2
:100ccc0000fe2f00008060000030a000603a880019
:100cdc00613a8000f00f2e000080600000a0a000a0
:100cec00603a880047e7a8000080fa000000060080
:100cfc000000fa0005ff070020c7b3000dff070036
:100d0c00defe070000c8b3000aff0700dbfe070089
:100d1c0030c0b30007ff0700d8fe07002aff07000a
:100d2c000080fa00000006000000fa00f7fe070041
:100d3c0020c7b300fffe0700d0fe070000c8b300b9
:100d4c00fcfe0700cdfe07000040eb00f9fe07009b
:100d5c00cafe07001cff07000080fa000000060016
:100d6c000c00fa00e9fe070020c7b300f1fe0700f3
:100d7c00c2fe0700c0c8b300eefe0700bffe0700ae
:100d8c0008ff070030c7b300eafe0700bbfe0700f0
:100d9c00f5fe0700cf80de00008fbe00c7fe070007
:100dac0009ff0700d9fe070020c7b300e1fe0700ca
:100dbc00b2fe0700d0c8b300defe0700affe07008e
:100dcc00f8fe070030c7b300dafe0700abfe0700e1
:100ddc00e5fe0700cf80de00200798003107980061
:100dec00b6fe0700f8fe07002e019000be01900031
:100dfc004818dd00c810de00810070004810dd00ce
:100e0c003e014000ae8148000200be004007980041
:100e1c00510798004e009000de0090000080fa0010
:100e2c00000006000800fa00604798006000b80057
:100e3c00008fbe0010002000200798006e4090002c
:100e4c000000fb0021062000810f50001a00320028
:100e5c0021062000810f500006003c00ed0f5000d1
:100e6c002600320011062000810f500008003200cd
:100e7c002700370091062000810f50001800320027
:100e8c00f1062000810f50001700320020003700bf
:100e9c0024000700200798002e009000cf80de0071
:100eac00c8fd0700a0002000e01c8800d000200036
:100ebc00e01c8800190037002b0007002007980061
:100ecc002e009000cf80de00befd0700a0002000a9
:100edc00e01c8800d0002000e01c88000f003700c8
:100eec0083ff07000d0037009dff0700008fbe0039
:100efc001e00be00b3fd070008003700a000200054
:100f0c00e01c8800d0002000e01c880003003700a3
:100f1c0050042000e01c8800000000000080fa0053
:100f2c00000006000000fa007ba6a9007bc6a90001
:100f3c004627a800a00020008dfd07004627a90029
:100f4c007bc6a80000000000303a80006100600001
:100f5c000000e000fcff32007ba6a80010398000e6
:100f6c000080fa00000006000000fa004627a800e6
:100f7c00a00020007efd07004627a900a00020004d
:100f8c007bfd0700903880000080fa00000006000e
:100f9c000200fa00d6fe070080412000000f780006
:100fac007be6a9001e00780071fd07007be6a80017
:0c0fbc001e0078006efd0700f9ff3700f2
:020000040000fa
:100fc8000008000008000000800000000808000079
:100fd8000200000082000000030000000000000082
:020000040000fa
:020000040005f5
:045e0000ffff0000a0
:020000040000fa
:020000040005f5
:045e2000ffffff0081
:020000040000fa
:020000040005f5
:045e3000f8ffff0078
:020000040000fa
:020000040005f5
:045e3800b7ffff00b1
:020000040000fa
:020000040005f5
:045e40009fffff00c1
:020000040000fa
:020000040005f5
:045e4800ffffff0059
:020000040000fa
:020000040005f5
:045e5000dfffff0071
:020000040000fa
:020000040005f5
:045e5800ffffff0049
:00000001FF
