:020000040000fa
:080000000001040000000000f3
:020000040000fa
:0400080044020000ae
:020000040000fa
:04000c0044020000aa
:020000040000fa
:0400100044020000a6
:020000040000fa
:0400140044020000a2
:020000040000fa
:04001800440200009e
:020000040000fa
:04001c00440200009a
:020000040000fa
:040020004402000096
:020000040000fa
:040024004402000092
:020000040000fa
:0400280028020000aa
:020000040000fa
:04002c00440200008a
:020000040000fa
:040030004402000086
:020000040000fa
:040034004402000082
:020000040000fa
:04003800440200007e
:020000040000fa
:04003c00440200007a
:020000040000fa
:040040004402000076
:020000040000fa
:040044004402000072
:020000040000fa
:04004800440200006e
:020000040000fa
:04004c00440200006a
:020000040000fa
:040050004402000066
:020000040000fa
:0400540004020000a2
:020000040000fa
:04005800440200005e
:020000040000fa
:04005c00440200005a
:020000040000fa
:040060004402000056
:020000040000fa
:040064004402000052
:020000040000fa
:04006800440200004e
:020000040000fa
:04006c00440200004a
:020000040000fa
:040070004402000046
:020000040000fa
:040074004402000042
:020000040000fa
:04007800440200003e
:020000040000fa
:04007c00440200003a
:020000040000fa
:040080004402000036
:020000040000fa
:040084004402000032
:020000040000fa
:04008800440200002e
:020000040000fa
:04008c00440200002a
:020000040000fa
:040090004402000026
:020000040000fa
:040094004402000022
:020000040000fa
:04009800440200001e
:020000040000fa
:04009c00440200001a
:020000040000fa
:0400a0004402000016
:020000040000fa
:0400a4004402000012
:020000040000fa
:0400a800440200000e
:020000040000fa
:0400ac00440200000a
:020000040000fa
:0400b0004402000006
:020000040000fa
:0400b4004402000002
:020000040000fa
:0400b80044020000fe
:020000040000fa
:0400bc0044020000fa
:020000040000fa
:0400c00044020000f6
:020000040000fa
:0400c40044020000f2
:020000040000fa
:0400c80044020000ee
:020000040000fa
:0400cc0044020000ea
:020000040000fa
:0400d00044020000e6
:020000040000fa
:0400d40044020000e2
:020000040000fa
:0400d80044020000de
:020000040000fa
:0400dc0044020000da
:020000040000fa
:0400e00044020000d6
:020000040000fa
:0400e40044020000d2
:020000040000fa
:0400e80044020000ce
:020000040000fa
:0400ec0044020000ca
:020000040000fa
:0400f00044020000c6
:020000040000fa
:0400f40044020000c2
:020000040000fa
:0400f80044020000be
:020000040000fa
:0400fc0044020000ba
:020000040000fa
:0401000044020000b5
:020000040000fa
:0401040044020000b1
:020000040000fa
:0401080044020000ad
:020000040000fa
:04010c0044020000a9
:020000040000fa
:0401100044020000a5
:020000040000fa
:0401140044020000a1
:020000040000fa
:04011800440200009d
:020000040000fa
:04011c004402000099
:020000040000fa
:040120004402000095
:020000040000fa
:040124004402000091
:020000040000fa
:04012800440200008d
:020000040000fa
:04012c004402000089
:020000040000fa
:040130004402000085
:020000040000fa
:040134004402000081
:020000040000fa
:04013800440200007d
:020000040000fa
:04013c004402000079
:020000040000fa
:040140004402000075
:020000040000fa
:040144004402000071
:020000040000fa
:04014800440200006d
:020000040000fa
:04014c004402000069
:020000040000fa
:040150004402000065
:020000040000fa
:040154004402000061
:020000040000fa
:04015800440200005d
:020000040000fa
:04015c004402000059
:020000040000fa
:040160004402000055
:020000040000fa
:040164004402000051
:020000040000fa
:04016800440200004d
:020000040000fa
:04016c004402000049
:020000040000fa
:040170004402000045
:020000040000fa
:040174004402000041
:020000040000fa
:04017800440200003d
:020000040000fa
:04017c004402000039
:020000040000fa
:040180004402000035
:020000040000fa
:040184004402000031
:020000040000fa
:04018800440200002d
:020000040000fa
:04018c004402000029
:020000040000fa
:040190004402000025
:020000040000fa
:040194004402000021
:020000040000fa
:04019800440200001d
:020000040000fa
:04019c004402000019
:020000040000fa
:0401a0004402000015
:020000040000fa
:0401a4004402000011
:020000040000fa
:0401a800440200000d
:020000040000fa
:0401ac004402000009
:020000040000fa
:0401b0004402000005
:020000040000fa
:0401b4004402000001
:020000040000fa
:0401b80044020000fd
:020000040000fa
:0401bc0044020000f9
:020000040000fa
:0401c00044020000f5
:020000040000fa
:0401c40044020000f1
:020000040000fa
:0401c80044020000ed
:020000040000fa
:0401cc0044020000e9
:020000040000fa
:0401d00044020000e5
:020000040000fa
:0401d40044020000e1
:020000040000fa
:0401d80044020000dd
:020000040000fa
:0401dc0044020000d9
:020000040000fa
:0401e00044020000d5
:020000040000fa
:0401e40044020000d1
:020000040000fa
:0401e80044020000cd
:020000040000fa
:0401ec0044020000c9
:020000040000fa
:0401f00044020000c5
:020000040000fa
:0401f40044020000c1
:020000040000fa
:0401f80044020000bd
:020000040000fa
:0401fc0044020000b9
:020000040000fa
:10020000af8020000e7f24000e0188000000000057
:10021000000020000000e000020032000001200089
:100220002002880014000700990007000000e00089
:1002300003003a00e099200001002000020037008e
:100240000000200001002000810f7000010032003a
:1002500014000700000020000000e000020032004f
:1002600000000200000000008609020000000000fb
:100270000040da000000fe004440a90020002000f9
:100280000000e00003003200100020009001880010
:100290004440a800000006008a1f78008b1f7800e9
:1002a00000000600a1028800800478000000eb0036
:1002b0001f003700e284440054a0b4009905ba003e
:1002c000e284440054a0b4009906ba00e2844400d9
:1002d00054a0b4000006eb00476fde00fd07b2003b
:1002e000ae018800636ce10003003a00eaff0700fa
:1002f0000000eb000e003700606ce10008003a00df
:10030000004deb000a05e800020039003420ec0043
:100310000af0a0008b05e900f9ff3e000400370059
:100320006168e100010032000086eb000b0007006d
:1003300019c7ba001905ba000e04e00003003a001c
:100340000a00e000dbff3a0000000600fe07b200f2
:10035000ae0288008a047800f5ff37000cd0a300b5
:10036000e20f4d001c00390089027800354dba00bb
:100370000a05e800020039003420ec000af0a00071
:100380008b05e9000f003200254dba000a05e80090
:10039000020039003420ec000af0a0008b05e900cf
:1003a000080032000c00e0000600320015cdba0053
:1003b0000a05e800020039003420ec000af0a00031
:1003c0008b05e9008984e80054a0b4000b00e0002c
:1003d000e2ff3a00000006009902ba00055d7800cd
:1003e0008b05e900f7ff3200c82ade00055d7800c2
:1003f0008b05e900f3ff32000c00e000f1ff320052
:1004000019ddba00eeff37003600f800809fbe000d
:10041000829fbe00849fbe00869fbe000200fa003d
:10042000f01c8000004f78001e4078008303070016
:100430008960a9000080fa004f03be004f02be0091
:100440004f01be004f00be003600f900004006001c
:100450003200f8003400f800881f780018002000ef
:10046000a801880018002000980188004f04780037
:100470000000fa008800a9000080fa003400f900aa
:100480003200f900004006000040da000000fe00e3
:1004900000000500839f68000100e00002003d00ad
:1004a00060001000e08018000300e00002003d0042
:1004b00060011100e0811900140007004f00e00006
:1004c00002003b0060001000e08018000000060001
:1004d000811f78000100e00002003d006000100074
:1004e000e08018000300e00002003d006001110000
:1004f000e0811900150007004f00e00002003b00fa
:1005000060001000e0801800000006006022b800c3
:10051000060220000000d0008180d2000482d200b8
:100520008582d2000000a0000202520083825a009d
:10053000030031000202420083824a000000a10051
:100540000603e900f3ff3a0000000600efff070092
:080550000400be0000000600db
:020000040000fa
:100558000200fa00000f78001e0078000000e0009a
:1005680007003a0020052000e01c88001000200049
:100578001040880010002000304088000600370036
:100588000628ef0000408000900107000080fb0073
:10059800e01c88000028ef000080fa000000060038
:1005a8000600fa0010079800414798001e009000c6
:1005b8000000e00007003a0070052000e01c8800f9
:1005c8001000200010408800100020002040880003
:1005d8000f003700ce409000004080005c0107000b
:1005e8000080fb00000f78000428ef000028ef00cf
:1005f8001e0078000000e00003003a00b00220006e
:10060800e01c880002003700d0022000e01c8800af
:100618000080fa00000006000200fa00004f78008f
:10062800404080000000e00001003a000228ef008e
:100638001e00fb006101b90000fd2f00f1ff2f0033
:10064800020040008380480062012000030020006f
:10065800820f5000838f580093003e000060010015
:1006680016003700180037001f0037002600370033
:100678002d003700340037003b00370042003700b8
:1006880049003700500037008700370086003700e0
:100698008500370084003700830037008200370068
:1006a8008100370050003700570037005e003700e0
:1006b800650037006c003700730037000040800089
:1006c800004088007e003700404080004200dd0086
:1006d800110020008008dd000040800000804000fc
:1006e8000040880076003700404080004200dd006e
:1006f800210020008008dd000040800000804000cc
:10070800004088006e003700404080004200dd0055
:10071800310020008008dd0000408000008040009b
:100728000040880066003700404080004200dd003d
:10073800410020008008dd0000408000008040006b
:10074800004088005e003700404080004200dd0025
:10075800510020008008dd0000408000008040003b
:100768000040880056003700404080004200dd000d
:10077800610020008008dd0000408000008040000b
:10078800004088004e003700404080004200dd00f5
:10079800710020008008dd000040800000804000db
:1007a8000040880046003700404080004200dd00dd
:1007b800810020008008dd000040800000804000ab
:1007c800004088003e003700404080004200dd00c5
:1007d800910020008008dd0000408000008040007b
:1007e8000040880036003700404080004200dd00ad
:1007f800a10020008008dd0000408000008040004b
:10080800004088002e003700404080004200dd0094
:10081800b10020008008dd0000408000008040001a
:100828000040880026003700404080004200dd007c
:10083800c10020008008dd000040800000804000ea
:10084800004088001e003700404080004200dd0064
:10085800d10020008008dd000040800000804000ba
:100868000040880016003700404080004200dd004c
:10087800e10020008008dd0000408000008040008a
:10088800004088000e003700404080004200dd0034
:10089800f10020008008dd0000408000008040005a
:1008a80000408800060037000628ef000428ef0003
:1008b8000028ef00300020004040880000000000c1
:1008c8001e00fb00e01c8800404080000000e9009a
:1008d80040408800304080000000e0000500320001
:1008e800404080000000e00002003d0010002000b1
:1008f80017ff0700404080000000e00002003d00b4
:1009080030002000404088000080fa000000060007
:100918000000fa007b06a8007b26a8007d06a80038
:100928007d26a8007706a9007726a9000080fa008e
:10093800000006000000fa00f124800000482000b2
:10094800008060000000e000060032009ee4a9007c
:100958009be4a90000102000be0007009be4a8004b
:100968000100370000000000d02480007f006000f4
:100978000000e000fcff3a00f12480001000240091
:10098800008060000000e000f7ff3a000080fa00f5
:10099800000006000000fa00f12480000000280092
:1009a800008060000000e00004003200e004200045
:1009b800e01c88000000eb00040037001004200051
:1009c800e01c88009fe4a800100020000080fa00c6
:1009d800000006000000fa009aa4a8009a84a80063
:1009e80000000000d0248000700060000000e000db
:1009f800fcff3a000080fa00000006000000fa0040
:100a08009aa4a9009a84a80000000000d0248000bd
:100a1800700060000000e000fcff3a000080fa006f
:100a2800000006000000fa00c2ff07009a04a800b0
:100a3800070037009f44a9009a04a900b4ff0700e3
:100a4800bcff07009a04a8004006200081000700a8
:100a5800f124800000402000008060000000e000d9
:100a6800f4ff3a0000000000d0248000610060001c
:100a78000000e000fcff3a000080fa0000000600d9
:100a88000200fa00004f78001e80fb00b0248800a6
:100a9800f124800000402000008060000000e00099
:100aa800020032007ba6a800010037000000000009
:100ab800f124800000002400008060000000e000b5
:100ac800fbff3a000080fa00000006000000fa0070
:100ad80098ff07009a64a80000000000d024800056
:100ae800680060000000e000fcff3a00f02480008d
:100af800620060000000e000f8ff3200a0248000df
:100b08000080fa00000006000000fa009a24a800fd
:100b180000000000d0248000620060000000e000b7
:100b2800fcff3a000080fa00000006000000fa000e
:100b38009a44a80000000000d024800064006000ef
:100b48000000e000fcff3a000080fa000000060008
:100b58000800fa0020079800614798002e009000ce
:100b68004800de00000f7800ae009000f00f200073
:100b78000080600010079800aaff070000cab300b1
:100b8800bfff070083ff07001e00780000407800c1
:100b9800bbff07007fff07001e00900000407800a1
:100ba800b7ff07007bff07006e409000b4ff070007
:100bb80078ff0700ddff0700001020002500070070
:100bc80010c0b3000080fa00000006000800fa0018
:100bd800300798003e0090004800de00000f7800c3
:100be800be009000f00f2000008060001007980001
:100bf8008cff070000cab300a1ff070065ff0700cc
:100c08001e007800004078009dff070061ff070084
:100c18001e0090000040780099ff07005dff070064
:100c2800b9ff070010cab30095ff070059ff070076
:100c3800a6ff07004047980070ff0700bbff0700aa
:100c480000102000030007004e4090000080fa00ca
:100c5800000006000600fa00200798000000eb00dc
:100c6800000f78000b0037000000eb001007980019
:100c7800030037001e0090000000e80010079800ed
:100c88009e00900070072000808f5000f9ff36000a
:100c98001e0fe8002e0090009e0f5000f2ff3e004d
:100ca8000080fa00000006000400fa00008fbe0071
:100cb800f0702200010020001e01be00800f5100cc
:100cc800818f5900370034001e00be0002712200d7
:100cd80003002000edfd0700000078000003b000cd
:100ce800e01c8800a0002000daff07001e00be00fc
:100cf800823e200003002000e4fd0700a20020003f
:100d080003002000f0fd0700000078000003b00099
:100d1800e01c8800a0002000ceff07001e00be00d7
:100d28004206200003002000d8fd0700a200200092
:100d380003002000e4fd0700000078000003b00075
:100d4800e01c8800a0002000c2ff07001e00be00b3
:100d5800a200200003002000ccfd0700a200200014
:100d680003002000d8fd0700000078000003b00051
:100d7800e01c8800a0002000b6ff07001e00be008f
:100d8800a200200003002000cffd0700000078002b
:100d98000003b000e01c8800a0002000adff0700a1
:100da80060003700703e2000010020001e01be00d8
:100db800800f5100818f5900230034001e00be00af
:100dc800823e200003002000b0fd070000007800ec
:100dd8000003b000e01c88001e00be004206200090
:100de80003002000a9fd0700a20020000300200046
:100df800b5fd0700000078000003b000e01c880083
:100e08001e00be00a2002000030020009ffd070076
:100e1800a200200003002000abfd070000007800be
:100e28000003b000e01c88001e00be00a2002000e5
:100e380003002000a4fd0700000078000003b000b4
:100e4800e01c880037003700300620000100200031
:100e58001e01be00800f5100818f59001900340017
:100e68001e00be00420620000300200087fd070088
:100e7800000078000003b000e01c88001e00be00df
:100e8800a20020000300200080fd0700a20020002f
:100e9800030020008cfd0700000078000003b0006c
:100ea800e01c88001e00be00a200200003002000f5
:100eb80085fd0700000078000003b000e01c8800f2
:100ec800180037001e01be0090002000010020001d
:100ed800800f5100818f59000f0034001e00be00a2
:100ee800a20020000300200068fd07000000780031
:100ef8000003b000e01c88001e00be00a200200015
:100f08000300200070fd0700000078000003b00017
:100f1800e01c8800030037001e0078000003b000c2
:100f2800e01c88000080fa00000006000000fa00bb
:100f3800080007002300070075fe070028000700c7
:100f4800420007004d000700570007000080fa0024
:100f5800000006000000fa000000230010088800c6
:100f68000621ef006821ef006a21ef006c21ef00f5
:100f78000821ef0000702000500888000c21ef00c5
:100f88000e21ef000001eb0080072000a1092000de
:100f98001310200080497800814978008249780040
:100fa8000001eb0060042000710520000310200000
:100fb8008049780081497800824978000080fa00e9
:100fc800000006000000fa007a26ef00f0fe21007b
:100fd800b03388007e26ef000080fa00000006008b
:100fe8000000fa009823ef009a23ef00a13d80004b
:100ff80000fc2f00008060003000b300a03d880096
:10100800c13e800000f82f00008060003000b3006f
:10101800c03e88008960a90061058000f0ff2800b3
:1010280080806000000023000100700060058800d7
:101038009960a80090012000001d880099e3a8008d
:101048009b43a8000080fa00000006000000fa0098
:101058008800a90081e0a9004105800080ff2f00d9
:10106800008060000020a000400588008200a900e0
:101078009800a8000080fa00000006000000fa00ae
:1010880000002100d02488009e24ef009c64a90061
:1010980030002000c02488008a20a9009be4a80012
:1010a8000080fa00000006000000fa007fa6a800f1
:1010b800313a8000f0f02f008080600000072000a7
:1010c80001007000303a88004647a8004827ef0022
:1010d800513a8000f00f2e008080600000702000e0
:1010e80001007000503a880080002000603a8800b3
:1010f8005027ef0047e7a8000080fa00000006002c
:101108000000fa0047fe070020c7b3005cfe070096
:1011180020fe070000c8b30059fe07001dfe0700a7
:1011280030c0b30056fe07001afe07007ffe070016
:101138000080fa00000006000000fa0039fe0700ef
:1011480020c7b3004efe070012fe070000c8b30018
:101158004bfe07000ffe07000040eb0048fe0700ab
:101168000cfe070071fe07000080fa000000060070
:101178000c00fa002bfe070020c7b30040fe070052
:1011880004fe0700c0c8b3003dfe070001fe0700cb
:101198005dfe070030c7b30039fe0700fdfd0700fc
:1011a8004afe0700cf80de00008fbe0009fe070060
:1011b8005efe07001bfe070020c7b30030fe0700d5
:1011c800f4fd0700d0c8b3002dfe0700f1fd0700ad
:1011d8004dfe070030c7b30029fe0700edfd0700ec
:1011e8003afe0700cf80de002007980031079800fc
:1011f800f8fd07004dfe07002e019000be0190008b
:101208004818dd00c810de00810070004810dd00bd
:101218003e014000ae8148000200be004007980031
:10122800510798004e009000de0090000080fa0000
:10123800000006000800fa00604798006000b80047
:10124800008fbe0010002000200798006e4090001c
:101258000000fb0011062000810f50001100320031
:1012680011062000810f500007003c0011032000e8
:10127800810f50001700320021032000810f500019
:10128800190032001d00370021072000810f50008f
:101298000900320071072000810f50000900320058
:1012a8001600370090388000200798002e00900024
:1012b800cf80de007cfe07000000eb00a4fc0700e6
:1012c8000e003700ee4090000000eb00b4fc070071
:1012d8000a003700a6ff0700008fbe001e00be00f0
:1012e80071fe070005003700a0002000e01c880000
:1012f800d0002000e01c8800000000000080fa00f8
:10130800000006000200fa0008ff070080412000e4
:10131800000f78007aff07007be6a9001e0078001e
:101328004cfe07007be6a8001e00780049fe070077
:04133800f9ff370082
:020000040000fa
:10133c000008000008000000800000000808000001
:10134c00020000008200000003000000000000000a
:020000040000fa
:020000040005f5
:045e0000ffff0000a0
:020000040000fa
:020000040005f5
:045e2000ffffff0081
:020000040000fa
:020000040005f5
:045e3000f8ffff0078
:020000040000fa
:020000040005f5
:045e3800b7ffff00b1
:020000040000fa
:020000040005f5
:045e40009fffff00c1
:020000040000fa
:020000040005f5
:045e4800ffffff0059
:020000040000fa
:020000040005f5
:045e5000dfffff0071
:020000040000fa
:020000040005f5
:045e5800ffffff0049
:00000001FF
